:020000040800F2
:10000000005000208D0300080D030008DD030008E8
:10001000DD030008DD030008DD0300080000000028
:10002000000000000000000000000000DD030008E8
:10003000DD03000800000000DD030008DD03000808
:10004000DD030008DD030008DD030008DD03000810
:10005000DD030008DD030008DD030008DD03000800
:10006000DD030008DD030008DD030008DD030008F0
:10007000DD030008DD030008DD030008DD030008E0
:10008000DD030008DD030008DD030008DD030008D0
:10009000DD030008DD030008DD030008DD030008C0
:1000A000DD030008DD030008DD030008DD030008B0
:1000B000DD030008DD030008DD030008DD030008A0
:1000C000DD030008DD030008DD030008DD03000890
:1000D000DD030008DD030008DD030008DD03000880
:1000E000DD030008DD030008DD0300080000000058
:1000F0000000000000000000000000000000000000
:0C01000000000000000000005FF808F1A3
:10010C0010B5054C237833B9044B13B10448AFF345
:10011C0000800123237010BD0000002000000000AF
:10012C002C04000808B5064B1BB106480649AFF372
:10013C0000800648036813B1054B03B1984708BD0E
:10014C00000000002C040008040000200000002027
:10015C00000000000F4B1A6842F001021A60596847
:10016C000D4A0A405A601A6822F0847222F48032D6
:10017C001A601A6822F480221A605A6822F4FE026D
:10018C005A604FF41F029A604FF00062034B9A6062
:10019C00704700BF001002400000FFF800ED00E0C7
:1001AC00034608BB02291FD1544B1A6842F00102C6
:1001BC001A601A46136813F0020FFBD04F4B5A68A3
:1001CC0022F480625A605A6822F400525A605A68CB
:1001DC0022F040025A601A6822F080721A605A6843
:1001EC0022F003025A607047002B3FD104293DD105
:1001FC0003F1804303F504331A6842F001021A60DC
:10020C001A46136813F0020FFBD03C4B5A6822F4C9
:10021C0080325A605A6842F4C0125A601A6842F02E
:10022C0080721A601A46136813F0007FFBD0334BB0
:10023C005A6842F480625A605A6822F440725A60DA
:10024C005A6822F480625A605A6822F080025A601E
:10025C005A6842F002025A605A6822F001025A604F
:10026C001A46536813F0080FFBD07047012B43D18B
:10027C00032941D1214B1A6842F480321A601A4684
:10028C00136813F4003FFBD01C4B5A6842F4002255
:10029C005A605A6822F400125A605A6822F40032EA
:1002AC005A605A6842F480325A605A6842F480624A
:1002BC005A605A6822F440725A605A6822F400520A
:1002CC005A605A6822F080025A601A6842F08072B2
:1002DC001A601A46136813F0007FFBD0074B5A685C
:1002EC0042F002025A605A6822F001025A601A4621
:1002FC00536813F0080FFBD0704700BF001002408A
:10030C00024B9A6842F400029A6070470010024057
:10031C0000224EF65F20114606E000BF013300E0DC
:10032C000B461D2BF9D901328242F9D9704700BF17
:10033C0008B501200321FFF733FF104B9A6942F0F7
:10034C0008029A61A3F582335A6842F030025A606F
:10035C005A6822F0C0025A605A6942F400725A611B
:10036C001C46236943F400732361FFF7D1FF6369D3
:10037C0043F400736361FFF7CBFFF2E70010024018
:10038C00002100F004B80D4B5B58435004310C486D
:10039C000C4B42189A42FFF4F6AF0B4A00F003B82C
:1003AC00002342F8043B094B9A42FFF4F9AFFFF7E4
:1003BC00D1FE00F00FF8FFF7BBFF70474C040008AC
:1003CC000000002000000020000000201C00002085
:1003DC00FFF7FEBF70B50E4B0E4D0024ED1AAD109D
:1003EC001E46AC4204D056F8242090470134F8E75E
:1003FC0000F016F8084D094B0024ED1AAD101E46FE
:10040C00AC4204D056F8242090470134F8E770BD74
:10041C00440400084404000848040008440400088C
:10042C00F8B500BFF8BC08BC9E467047F8B500BFD5
:08043C00F8BC08BC9E467047A5
:04044400310100087A
:040448000D0100089A
:040000050800038D5F
:00000001FF
